{
  "contractName": "SimpleStorage",
  "abi": [
    {
      "inputs": [],
      "name": "activePlayer",
      "outputs": [
        {
          "internalType": "address",
          "name": "",
          "type": "address"
        }
      ],
      "stateMutability": "view",
      "type": "function",
      "constant": true
    },
    {
      "inputs": [],
      "name": "gameCost",
      "outputs": [
        {
          "internalType": "uint256",
          "name": "",
          "type": "uint256"
        }
      ],
      "stateMutability": "view",
      "type": "function",
      "constant": true
    },
    {
      "inputs": [],
      "name": "guestPlayer",
      "outputs": [
        {
          "internalType": "address",
          "name": "",
          "type": "address"
        }
      ],
      "stateMutability": "view",
      "type": "function",
      "constant": true
    },
    {
      "inputs": [],
      "name": "hostPlayer",
      "outputs": [
        {
          "internalType": "address",
          "name": "",
          "type": "address"
        }
      ],
      "stateMutability": "view",
      "type": "function",
      "constant": true
    },
    {
      "inputs": [],
      "name": "storedData",
      "outputs": [
        {
          "internalType": "uint256",
          "name": "",
          "type": "uint256"
        }
      ],
      "stateMutability": "view",
      "type": "function",
      "constant": true
    },
    {
      "inputs": [],
      "name": "victorPlayer",
      "outputs": [
        {
          "internalType": "address",
          "name": "",
          "type": "address"
        }
      ],
      "stateMutability": "view",
      "type": "function",
      "constant": true
    },
    {
      "inputs": [],
      "name": "startGame",
      "outputs": [],
      "stateMutability": "payable",
      "type": "function",
      "payable": true
    },
    {
      "inputs": [],
      "name": "joinGame",
      "outputs": [],
      "stateMutability": "payable",
      "type": "function",
      "payable": true
    },
    {
      "inputs": [
        {
          "internalType": "uint256",
          "name": "row",
          "type": "uint256"
        },
        {
          "internalType": "uint256",
          "name": "col",
          "type": "uint256"
        },
        {
          "internalType": "address",
          "name": "player",
          "type": "address"
        }
      ],
      "name": "checkWin",
      "outputs": [],
      "stateMutability": "nonpayable",
      "type": "function"
    },
    {
      "inputs": [
        {
          "internalType": "uint256",
          "name": "row",
          "type": "uint256"
        },
        {
          "internalType": "uint256",
          "name": "col",
          "type": "uint256"
        }
      ],
      "name": "moveGame",
      "outputs": [],
      "stateMutability": "nonpayable",
      "type": "function"
    },
    {
      "inputs": [],
      "name": "checkTie",
      "outputs": [
        {
          "internalType": "uint256",
          "name": "",
          "type": "uint256"
        }
      ],
      "stateMutability": "nonpayable",
      "type": "function"
    },
    {
      "inputs": [],
      "name": "getBoard",
      "outputs": [
        {
          "internalType": "uint256[15][15]",
          "name": "",
          "type": "uint256[15][15]"
        }
      ],
      "stateMutability": "nonpayable",
      "type": "function"
    },
    {
      "inputs": [],
      "name": "getVictorPlayer",
      "outputs": [
        {
          "internalType": "address",
          "name": "",
          "type": "address"
        }
      ],
      "stateMutability": "view",
      "type": "function",
      "constant": true
    },
    {
      "inputs": [],
      "name": "getActivePlayer",
      "outputs": [
        {
          "internalType": "address",
          "name": "",
          "type": "address"
        }
      ],
      "stateMutability": "view",
      "type": "function",
      "constant": true
    },
    {
      "inputs": [],
      "name": "getHost",
      "outputs": [
        {
          "internalType": "address",
          "name": "",
          "type": "address"
        }
      ],
      "stateMutability": "view",
      "type": "function",
      "constant": true
    },
    {
      "inputs": [],
      "name": "getGuest",
      "outputs": [
        {
          "internalType": "address",
          "name": "",
          "type": "address"
        }
      ],
      "stateMutability": "view",
      "type": "function",
      "constant": true
    },
    {
      "inputs": [],
      "name": "clear",
      "outputs": [],
      "stateMutability": "nonpayable",
      "type": "function"
    }
  ],
  "bytecode": "0x6080604052600060e755600060e85534801561001a57600080fd5b50611b228061002a6000396000f3fe6080604052600436106100fe5760003560e01c8063951ef86c11610095578063c3d4847f11610064578063c3d4847f146102ef578063cab896dc1461031a578063d4f77b1c14610345578063d65ab5f21461034f578063dfeada9414610359576100fe565b8063951ef86c146102455780639db55d4814610270578063a33f09541461029b578063b6ff6a52146102c4576100fe565b80637fdffd23116100d15780637fdffd231461019b5780638039ed53146101c65780638325a82b146101f15780639421eba31461021c576100fe565b806320bc4425146101035780632a1afcd91461012e5780633264a34b1461015957806352efea6e14610184575b600080fd5b34801561010f57600080fd5b50610118610384565b60405161012591906116f0565b60405180910390f35b34801561013a57600080fd5b506101436103ad565b6040516101509190611724565b60405180910390f35b34801561016557600080fd5b5061016e6103b3565b60405161017b9190611887565b60405180910390f35b34801561019057600080fd5b50610199610436565b005b3480156101a757600080fd5b506101b06105b0565b6040516101bd91906116f0565b60405180910390f35b3480156101d257600080fd5b506101db6105d6565b6040516101e891906116f0565b60405180910390f35b3480156101fd57600080fd5b506102066105fa565b6040516102139190611724565b60405180910390f35b34801561022857600080fd5b50610243600480360381019061023e9190611900565b610672565b005b34801561025157600080fd5b5061025a610d5e565b60405161026791906116f0565b60405180910390f35b34801561027c57600080fd5b50610285610d88565b60405161029291906116f0565b60405180910390f35b3480156102a757600080fd5b506102c260048036038101906102bd9190611953565b610db2565b005b3480156102d057600080fd5b506102d96111fb565b6040516102e691906116f0565b60405180910390f35b3480156102fb57600080fd5b50610304611221565b60405161031191906116f0565b60405180910390f35b34801561032657600080fd5b5061032f61124b565b60405161033c9190611724565b60405180910390f35b61034d611257565b005b61035761149e565b005b34801561036557600080fd5b5061036e6115cf565b60405161037b91906116f0565b60405180910390f35b60008060009054906101000a900473ffffffffffffffffffffffffffffffffffffffff16905090565b60e85481565b6103bb6115f5565b6004600f80602002604051908101604052809291906000905b8282101561042d578382600f0201600f806020026040519081016040528092919082600f8015610419576020028201915b815481526020019060010190808311610405575b5050505050815260200190600101906103d4565b50505050905090565b600073ffffffffffffffffffffffffffffffffffffffff16600360009054906101000a900473ffffffffffffffffffffffffffffffffffffffff1673ffffffffffffffffffffffffffffffffffffffff160361049157600080fd5b6000600360006101000a81548173ffffffffffffffffffffffffffffffffffffffff021916908373ffffffffffffffffffffffffffffffffffffffff16021790555060008060006101000a81548173ffffffffffffffffffffffffffffffffffffffff021916908373ffffffffffffffffffffffffffffffffffffffff1602179055506000600160006101000a81548173ffffffffffffffffffffffffffffffffffffffff021916908373ffffffffffffffffffffffffffffffffffffffff1602179055506000600260006101000a81548173ffffffffffffffffffffffffffffffffffffffff021916908373ffffffffffffffffffffffffffffffffffffffff160217905550600060e781905550600460006105ae9190611623565b565b600260009054906101000a900473ffffffffffffffffffffffffffffffffffffffff1681565b60008054906101000a900473ffffffffffffffffffffffffffffffffffffffff1681565b600060e160e55414801561065c5750600073ffffffffffffffffffffffffffffffffffffffff16600260009054906101000a900473ffffffffffffffffffffffffffffffffffffffff1673ffffffffffffffffffffffffffffffffffffffff16145b1561066a576001905061066f565b600290505b90565b600073ffffffffffffffffffffffffffffffffffffffff16600360009054906101000a900473ffffffffffffffffffffffffffffffffffffffff1673ffffffffffffffffffffffffffffffffffffffff16146106cd57600080fd5b600060e660008373ffffffffffffffffffffffffffffffffffffffff1673ffffffffffffffffffffffffffffffffffffffff168152602001908152602001600020549050600060019050600060018661072691906119c2565b90505b600f8110156107865782600482600f811061074757610746611a18565b5b600f020186600f811061075d5761075c611a18565b5b0154036107865760018261077191906119c2565b9150808061077e90611a47565b915050610729565b50600085031561080957600060018661079f9190611a8f565b90505b600081106108075782600482600f81106107bf576107be611a18565b5b600f020186600f81106107d5576107d4611a18565b5b015403610807576001826107e991906119c2565b915060008103156108075780806107ff90611ac3565b9150506107a2565b505b600060019050600060018661081e91906119c2565b90505b600f81101561087e5783600488600f811061083f5761083e611a18565b5b600f020182600f811061085557610854611a18565b5b01540361087e5760018261086991906119c2565b9150808061087690611a47565b915050610821565b5060008503156109015760006001866108979190611a8f565b90505b600081106108ff5783600488600f81106108b7576108b6611a18565b5b600f020182600f81106108cd576108cc611a18565b5b0154036108ff576001826108e191906119c2565b915060008103156108ff5780806108f790611ac3565b91505061089a565b505b6000600190506000879050600e88148061091b5750600e87145b61099f57600060018861092e91906119c2565b90505b600f81101561099d5760018261094791906119c2565b915085600483600f811061095e5761095d611a18565b5b600f020182600f811061097457610973611a18565b5b01540361099d5760018361098891906119c2565b9250808061099590611a47565b915050610931565b505b60008814806109ae5750600087145b610a535787905060006001886109c49190611a8f565b90505b60008110610a51576001826109dc9190611a8f565b915085600483600f81106109f3576109f2611a18565b5b600f020182600f8110610a0957610a08611a18565b5b0154141580610a185750600082105b610a5157600183610a2991906119c2565b92506000821480610a3a5750600081145b610a51578080610a4990611ac3565b9150506109c7565b505b600060019050600e891480610a685750600088145b610af857879150600060018a610a7e91906119c2565b90505b600f811015610af657600183610a979190611a8f565b925086600482600f8110610aae57610aad611a18565b5b600f020184600f8110610ac457610ac3611a18565b5b015403610af657600182610ad891906119c2565b91506000830315610af6578080610aee90611a47565b915050610a81565b505b6000891480610b075750600e88145b610ba257879150600060018a610b1d9190611a8f565b90505b60008110610ba057600183610b3591906119c2565b925086600482600f8110610b4c57610b4b611a18565b5b600f020184600f8110610b6257610b61611a18565b5b0154141580610b715750600e83115b610ba057600182610b8291906119c2565b91506000810315610ba0578080610b9890611ac3565b915050610b20565b505b600585101580610bb3575060058410155b80610bbf575060058310155b80610bcb575060058110155b15610c675786600360006101000a81548173ffffffffffffffffffffffffffffffffffffffff021916908373ffffffffffffffffffffffffffffffffffffffff1602179055503373ffffffffffffffffffffffffffffffffffffffff166108fc60e7549081150290604051600060405180830381858888f19350505050158015610c59573d6000803e3d6000fd5b50600060e781905550610d53565b60e160e55403610d525760008054906101000a900473ffffffffffffffffffffffffffffffffffffffff1673ffffffffffffffffffffffffffffffffffffffff166108fc6706f05b59d3b200009081150290604051600060405180830381858888f19350505050158015610cdf573d6000803e3d6000fd5b50600160009054906101000a900473ffffffffffffffffffffffffffffffffffffffff1673ffffffffffffffffffffffffffffffffffffffff166108fc6706f05b59d3b200009081150290604051600060405180830381858888f19350505050158015610d50573d6000803e3d6000fd5b505b5b505050505050505050565b6000600360009054906101000a900473ffffffffffffffffffffffffffffffffffffffff16905090565b6000600260009054906101000a900473ffffffffffffffffffffffffffffffffffffffff16905090565b6000600483600f8110610dc857610dc7611a18565b5b600f020182600f8110610dde57610ddd611a18565b5b015414610dea57600080fd5b600260009054906101000a900473ffffffffffffffffffffffffffffffffffffffff1673ffffffffffffffffffffffffffffffffffffffff163373ffffffffffffffffffffffffffffffffffffffff1614610e4457600080fd5b600073ffffffffffffffffffffffffffffffffffffffff16600260009054906101000a900473ffffffffffffffffffffffffffffffffffffffff1673ffffffffffffffffffffffffffffffffffffffff1603610e9f57600080fd5b600073ffffffffffffffffffffffffffffffffffffffff16600360009054906101000a900473ffffffffffffffffffffffffffffffffffffffff1673ffffffffffffffffffffffffffffffffffffffff1614610efa57600080fd5b60e66000600260009054906101000a900473ffffffffffffffffffffffffffffffffffffffff1673ffffffffffffffffffffffffffffffffffffffff1673ffffffffffffffffffffffffffffffffffffffff16815260200190815260200160002054600483600f8110610f7057610f6f611a18565b5b600f020182600f8110610f8657610f85611a18565b5b0181905550600160e554610f9a91906119c2565b60e581905550610fcd8282600260009054906101000a900473ffffffffffffffffffffffffffffffffffffffff16610672565b60008054906101000a900473ffffffffffffffffffffffffffffffffffffffff1673ffffffffffffffffffffffffffffffffffffffff16600260009054906101000a900473ffffffffffffffffffffffffffffffffffffffff1673ffffffffffffffffffffffffffffffffffffffff16036110aa57600160009054906101000a900473ffffffffffffffffffffffffffffffffffffffff16600260006101000a81548173ffffffffffffffffffffffffffffffffffffffff021916908373ffffffffffffffffffffffffffffffffffffffff16021790555061110c565b60008054906101000a900473ffffffffffffffffffffffffffffffffffffffff16600260006101000a81548173ffffffffffffffffffffffffffffffffffffffff021916908373ffffffffffffffffffffffffffffffffffffffff1602179055505b600073ffffffffffffffffffffffffffffffffffffffff16600360009054906101000a900473ffffffffffffffffffffffffffffffffffffffff1673ffffffffffffffffffffffffffffffffffffffff16146111a9576000600260006101000a81548173ffffffffffffffffffffffffffffffffffffffff021916908373ffffffffffffffffffffffffffffffffffffffff1602179055506111f7565b60e160e554036111f6576000600260006101000a81548173ffffffffffffffffffffffffffffffffffffffff021916908373ffffffffffffffffffffffffffffffffffffffff1602179055505b5b5050565b600360009054906101000a900473ffffffffffffffffffffffffffffffffffffffff1681565b6000600160009054906101000a900473ffffffffffffffffffffffffffffffffffffffff16905090565b6706f05b59d3b2000081565b6706f05b59d3b20000341461126b57600080fd5b600073ffffffffffffffffffffffffffffffffffffffff16600160009054906101000a900473ffffffffffffffffffffffffffffffffffffffff1673ffffffffffffffffffffffffffffffffffffffff16146112c657600080fd5b60008054906101000a900473ffffffffffffffffffffffffffffffffffffffff1673ffffffffffffffffffffffffffffffffffffffff163373ffffffffffffffffffffffffffffffffffffffff160361131e57600080fd5b600073ffffffffffffffffffffffffffffffffffffffff1660008054906101000a900473ffffffffffffffffffffffffffffffffffffffff1673ffffffffffffffffffffffffffffffffffffffff160361137757600080fd5b33600160006101000a81548173ffffffffffffffffffffffffffffffffffffffff021916908373ffffffffffffffffffffffffffffffffffffffff160217905550600260e66000600160009054906101000a900473ffffffffffffffffffffffffffffffffffffffff1673ffffffffffffffffffffffffffffffffffffffff1673ffffffffffffffffffffffffffffffffffffffff168152602001908152602001600020819055506706f05b59d3b2000060e75461143591906119c2565b60e78190555060008054906101000a900473ffffffffffffffffffffffffffffffffffffffff16600260006101000a81548173ffffffffffffffffffffffffffffffffffffffff021916908373ffffffffffffffffffffffffffffffffffffffff160217905550565b6706f05b59d3b2000034146114b257600080fd5b600073ffffffffffffffffffffffffffffffffffffffff1660008054906101000a900473ffffffffffffffffffffffffffffffffffffffff1673ffffffffffffffffffffffffffffffffffffffff161461150b57600080fd5b336000806101000a81548173ffffffffffffffffffffffffffffffffffffffff021916908373ffffffffffffffffffffffffffffffffffffffff160217905550600160e660008060009054906101000a900473ffffffffffffffffffffffffffffffffffffffff1673ffffffffffffffffffffffffffffffffffffffff1673ffffffffffffffffffffffffffffffffffffffff168152602001908152602001600020819055506706f05b59d3b2000060e7546115c791906119c2565b60e781905550565b600160009054906101000a900473ffffffffffffffffffffffffffffffffffffffff1681565b604051806101e00160405280600f905b61160d611638565b8152602001906001900390816116055790505090565b5080600f80020190611635919061165b565b50565b604051806101e00160405280600f90602082028036833780820191505090505090565b5b8082111561167b5760008181611672919061167f565b50600f0161165c565b5090565b5080600f019061168f9190611692565b50565b5b808211156116ab576000816000905550600101611693565b5090565b600073ffffffffffffffffffffffffffffffffffffffff82169050919050565b60006116da826116af565b9050919050565b6116ea816116cf565b82525050565b600060208201905061170560008301846116e1565b92915050565b6000819050919050565b61171e8161170b565b82525050565b60006020820190506117396000830184611715565b92915050565b6000600f9050919050565b600081905092915050565b6000819050919050565b6000600f9050919050565b600081905092915050565b6000819050919050565b6117888161170b565b82525050565b600061179a838361177f565b60208301905092915050565b6000602082019050919050565b6117bc8161175f565b6117c6818461176a565b92506117d182611775565b8060005b838110156118025781516117e9878261178e565b96506117f4836117a6565b9250506001810190506117d5565b505050505050565b600061181683836117b3565b6101e08301905092915050565b6000602082019050919050565b6118398161173f565b611843818461174a565b925061184e82611755565b8060005b8381101561187f578151611866878261180a565b965061187183611823565b925050600181019050611852565b505050505050565b6000611c208201905061189d6000830184611830565b92915050565b600080fd5b6118b18161170b565b81146118bc57600080fd5b50565b6000813590506118ce816118a8565b92915050565b6118dd816116cf565b81146118e857600080fd5b50565b6000813590506118fa816118d4565b92915050565b600080600060608486031215611919576119186118a3565b5b6000611927868287016118bf565b9350506020611938868287016118bf565b9250506040611949868287016118eb565b9150509250925092565b6000806040838503121561196a576119696118a3565b5b6000611978858286016118bf565b9250506020611989858286016118bf565b9150509250929050565b7f4e487b7100000000000000000000000000000000000000000000000000000000600052601160045260246000fd5b60006119cd8261170b565b91506119d88361170b565b9250827fffffffffffffffffffffffffffffffffffffffffffffffffffffffffffffffff03821115611a0d57611a0c611993565b5b828201905092915050565b7f4e487b7100000000000000000000000000000000000000000000000000000000600052603260045260246000fd5b6000611a528261170b565b91507fffffffffffffffffffffffffffffffffffffffffffffffffffffffffffffffff8203611a8457611a83611993565b5b600182019050919050565b6000611a9a8261170b565b9150611aa58361170b565b925082821015611ab857611ab7611993565b5b828203905092915050565b6000611ace8261170b565b915060008203611ae157611ae0611993565b5b60018203905091905056fea264697066735822122034521f83e90785234967da7edf478416cc9df404a37a8c94eabbbe71f9d69d9364736f6c634300080d0033",
  "immutableReferences": {},
  "source": "// SPDX-License-Identifier: MIT\npragma solidity >=0.4.21 <0.8.16.0;\n\ncontract SimpleStorage {\n  \n  uint constant public gameCost = 0.5 ether;\n\n  address public hostPlayer;\n  address public guestPlayer;\n\n  address public activePlayer;\n  address public victorPlayer;\n\n  uint[15][15] private board;\n  uint private chessCount;\n  \n\n  \n\n  mapping(address => uint) private playerChess;\n  uint private winningPrice=0;\n\n  //test\n  uint public storedData=0;\n  \n\n  function startGame() public payable{\n\n    require(msg.value==gameCost);\n    require(hostPlayer==address(0));\n    hostPlayer=msg.sender;\n    \n    playerChess[hostPlayer] = 1;\n    winningPrice=winningPrice+gameCost;\n\n    //activePlayer=hostPlayer;        \n\n  }\n  function joinGame() public payable{\n    require(msg.value==gameCost);\n    require(guestPlayer == address(0));\n    require(msg.sender!=hostPlayer);\n    require(hostPlayer!=address(0));\n    guestPlayer = msg.sender;\n\n\n    playerChess[guestPlayer] = 2;\n    winningPrice=winningPrice+gameCost;\n    activePlayer=hostPlayer;\n  }\n\n  \n  function checkWin(uint row,uint col,address player)public{\n    require(victorPlayer==address(0));\n    //victorPlayer=hostPlayer;\n    uint nowPlayer=playerChess[player];\n    uint UpDownCount=1;\n    //\n    for(uint i=row+1; i<15;i++){\n      if (board[i][col]!= nowPlayer){\n        break;\n      }\n      UpDownCount=UpDownCount+1;\n    }\n    if (row==0 ){\n\n    }\n    else{\n      for(uint i=row-1; i>=0;i--){\n        if (board[i][col]!= nowPlayer){\n          break;\n        }\n        UpDownCount=UpDownCount+1;\n        if(i==0){\n          break;\n        }\n    }\n    }\n    \n    \n    //\n    uint LRcount=1;\n    for(uint i=col+1; i<15;i++){\n      if (board[row][i]!= nowPlayer){\n        break;\n      }\n      LRcount=LRcount+1;\n    }\n\n    if (col==0 ){ // in order for 'Panic: Arithmetic overflow',\n\n    }\n    else {\n      for(uint i=col-1; i>=0;i--){\n        if (board[row][i]!= nowPlayer){\n          break;\n        }\n        LRcount=LRcount+1;\n        if(i==0){\n          break;\n        }\n      }\n    }\n    \n\n    //\n    uint LCount=1;\n    uint j=row;\n    if(row==14||col==14){\n\n    }else{\n      for(uint i=col+1; i<15;i++){\n      j=j+1;\n      if (board[j][i]!= nowPlayer){\n        break;\n      }\n      LCount=LCount+1;\n    }\n    }\n    \n    if (row==0 || col==0){\n\n    }\n    else{\n      j=row;\n      for(uint i=col-1; i>=0;i--){\n        j=j-1;\n        if (board[j][i]!= nowPlayer|| j<0){\n          break;\n        }\n        LCount=LCount+1;\n\n        if(j==0||i==0){\n          break;\n        }\n\n      }\n    }\n    \n\n    //\n    uint RCount=1;\n    if(row==14||col==0){\n\n    }else{\n      j=col;\n      for(uint i=row+1; i<15;i++){\n        j=j-1;\n        if (board[i][j]!= nowPlayer){\n          break;\n        }\n        RCount=RCount+1;\n        if(j==0){\n          break;\n        }\n      }\n      \n    }\n\n    if(row==0||col==14){\n\n    }\n    else{\n      j=col;\n      for(uint i=row-1; i>=0;i--){\n        j=j+1;\n        if (board[i][j]!= nowPlayer|| j>14){\n          break;\n        }\n        RCount=RCount+1;\n        if(i==0){\n          break;\n        }\n    }\n    }\n    \n\n\n    //win \n    if(UpDownCount>=5 || LRcount>=5 ||LCount>=5||RCount>=5){\n      victorPlayer=player;\n      payable(msg.sender).transfer(winningPrice);\n      winningPrice=0;\n      //activePlayer=address(0);\n    }else if(chessCount==225){\n      payable(hostPlayer).transfer(gameCost);\n      payable(guestPlayer).transfer(gameCost);\n      //activePlayer=address(0);\n    }\n\n  }\n  \n  function moveGame(uint row,uint col) public{\n    require(board[row][col]==0);\n    require(msg.sender==activePlayer);\n    require(activePlayer!=address(0));\n    require(victorPlayer==address(0));\n    board[row][col]=playerChess[activePlayer];\n    chessCount=chessCount+1;\n    checkWin(row,col,activePlayer); \n\n\n    if(activePlayer==hostPlayer){\n      activePlayer=guestPlayer;\n    }else{\n      activePlayer=hostPlayer;\n    }\n    if(victorPlayer!=address(0)){\n      activePlayer=address(0);\n    }else if(chessCount==225){\n      activePlayer=address(0);\n    }\n    \n  }\n\n\n\n  function checkTie() public returns(uint){\n    if(chessCount==225 &&activePlayer==address(0)){\n      return 1;\n    }else{\n      return 2;\n    }\n    \n  }\n\n  function getBoard()public returns(uint[15][15] memory){\n    //uint[][] memory gameBorad=new uint[][](15);\n    return board;\n  }\n\n  function getVictorPlayer() public view returns (address){\n    return victorPlayer;\n  }\n  function getActivePlayer() public view returns (address){\n    return activePlayer;\n  }\n  function getHost() public view returns (address ){\n    return hostPlayer;\n  }\n  function getGuest() public view returns (address ){\n    return guestPlayer;\n  }\n\n\n  \n  function clear() public{\n    require(victorPlayer!=address(0));\n    victorPlayer=address(0);\n    hostPlayer=address(0);\n    guestPlayer=address(0);\n    activePlayer=address(0);//\n    //payable(msg.sender) .transfer(address(this).balance);\n    winningPrice=0;\n    delete board;\n  }\n\n\n\n\n  // ////////////////////test\n  // function get()public view returns(uint){\n  //   return storedData;\n  // }\n  // function set() public {\n  //   storedData = storedData+1;\n  // }\n  \n  // function sendToWinner() public {\n  //   //require(victorPlayer!=address(0));\n  //   require(msg.sender==victorPlayer);\n  //   payable(msg.sender).transfer(winningPrice);\n  //   winningPrice=0;\n  // }\n  // function setBoard() public{\n  //   board[0][0]=1;\n  // }\n\n  // function oneMone(uint row,uint col) public {\n    \n  //   for(uint i=row-1; i>=0;i--){\n  //     if (board[i][col]!= 1){\n  //       break;\n  //     }\n      \n  //   }\n  \n  // }\n  ////////////////////////////\n\n\n}\n",
  "sourcePath": "C:\\Users\\YLfan\\OneDrive\\UniMelb\\COMP90088\\Research\\Gobang_Web3\\2\\contracts\\SimpleStorage.sol",
  "compiler": {
    "name": "solc",
    "version": "0.8.13+commit.abaa5c0e.Emscripten.clang"
  },
  "schemaVersion": "3.4.7",
  "updatedAt": "2022-05-26T10:54:20.670Z",
  "networkType": "ethereum",
  "devdoc": {
    "kind": "dev",
    "methods": {},
    "version": 1
  },
  "userdoc": {
    "kind": "user",
    "methods": {},
    "version": 1
  }
}